{
  "_format": "hh-sol-artifact-1",
  "contractName": "CipherKindGlow",
  "sourceName": "contracts/CipherKindGlow.sol",
  "abi": [
    {
      "anonymous": false,
      "inputs": [
        {
          "indexed": true,
          "internalType": "bytes32",
          "name": "campaignId",
          "type": "bytes32"
        },
        {
          "indexed": false,
          "internalType": "uint256",
          "name": "timestamp",
          "type": "uint256"
        }
      ],
      "name": "CampaignCompleted",
      "type": "event"
    },
    {
      "anonymous": false,
      "inputs": [
        {
          "indexed": true,
          "internalType": "bytes32",
          "name": "campaignId",
          "type": "bytes32"
        },
        {
          "indexed": true,
          "internalType": "address",
          "name": "creator",
          "type": "address"
        },
        {
          "indexed": false,
          "internalType": "string",
          "name": "title",
          "type": "string"
        },
        {
          "indexed": false,
          "internalType": "string",
          "name": "description",
          "type": "string"
        },
        {
          "indexed": false,
          "internalType": "uint256",
          "name": "timestamp",
          "type": "uint256"
        }
      ],
      "name": "CampaignCreated",
      "type": "event"
    },
    {
      "anonymous": false,
      "inputs": [
        {
          "indexed": true,
          "internalType": "address",
          "name": "donor",
          "type": "address"
        },
        {
          "indexed": true,
          "internalType": "bytes32",
          "name": "campaignId",
          "type": "bytes32"
        },
        {
          "indexed": false,
          "internalType": "uint256",
          "name": "timestamp",
          "type": "uint256"
        }
      ],
      "name": "DonationMade",
      "type": "event"
    },
    {
      "inputs": [
        {
          "internalType": "bytes32",
          "name": "",
          "type": "bytes32"
        },
        {
          "internalType": "uint256",
          "name": "",
          "type": "uint256"
        }
      ],
      "name": "campaignDonations",
      "outputs": [
        {
          "internalType": "address",
          "name": "donor",
          "type": "address"
        },
        {
          "internalType": "bytes32",
          "name": "campaignId",
          "type": "bytes32"
        },
        {
          "internalType": "euint32",
          "name": "encryptedAmount",
          "type": "bytes32"
        },
        {
          "internalType": "uint256",
          "name": "timestamp",
          "type": "uint256"
        }
      ],
      "stateMutability": "view",
      "type": "function"
    },
    {
      "inputs": [
        {
          "internalType": "uint256",
          "name": "",
          "type": "uint256"
        }
      ],
      "name": "campaignIds",
      "outputs": [
        {
          "internalType": "bytes32",
          "name": "",
          "type": "bytes32"
        }
      ],
      "stateMutability": "view",
      "type": "function"
    },
    {
      "inputs": [
        {
          "internalType": "bytes32",
          "name": "",
          "type": "bytes32"
        }
      ],
      "name": "campaigns",
      "outputs": [
        {
          "internalType": "bytes32",
          "name": "id",
          "type": "bytes32"
        },
        {
          "internalType": "address",
          "name": "creator",
          "type": "address"
        },
        {
          "internalType": "string",
          "name": "title",
          "type": "string"
        },
        {
          "internalType": "string",
          "name": "description",
          "type": "string"
        },
        {
          "internalType": "euint32",
          "name": "encryptedTargetAmount",
          "type": "bytes32"
        },
        {
          "internalType": "euint32",
          "name": "encryptedTotalRaised",
          "type": "bytes32"
        },
        {
          "internalType": "bool",
          "name": "isActive",
          "type": "bool"
        },
        {
          "internalType": "uint256",
          "name": "createdAt",
          "type": "uint256"
        },
        {
          "internalType": "uint256",
          "name": "completedAt",
          "type": "uint256"
        },
        {
          "internalType": "uint256",
          "name": "donorCount",
          "type": "uint256"
        },
        {
          "internalType": "uint256",
          "name": "donationCount",
          "type": "uint256"
        }
      ],
      "stateMutability": "view",
      "type": "function"
    },
    {
      "inputs": [
        {
          "internalType": "bytes32",
          "name": "_campaignId",
          "type": "bytes32"
        }
      ],
      "name": "completeCampaign",
      "outputs": [],
      "stateMutability": "nonpayable",
      "type": "function"
    },
    {
      "inputs": [
        {
          "internalType": "string",
          "name": "_title",
          "type": "string"
        },
        {
          "internalType": "string",
          "name": "_description",
          "type": "string"
        },
        {
          "internalType": "externalEuint32",
          "name": "_encryptedTargetAmount",
          "type": "bytes32"
        },
        {
          "internalType": "bytes",
          "name": "_inputProof",
          "type": "bytes"
        }
      ],
      "name": "createCampaign",
      "outputs": [
        {
          "internalType": "bytes32",
          "name": "",
          "type": "bytes32"
        }
      ],
      "stateMutability": "nonpayable",
      "type": "function"
    },
    {
      "inputs": [],
      "name": "getAllCampaigns",
      "outputs": [
        {
          "internalType": "bytes32[]",
          "name": "",
          "type": "bytes32[]"
        }
      ],
      "stateMutability": "view",
      "type": "function"
    },
    {
      "inputs": [
        {
          "internalType": "bytes32",
          "name": "_campaignId",
          "type": "bytes32"
        }
      ],
      "name": "getCampaign",
      "outputs": [
        {
          "internalType": "bytes32",
          "name": "id",
          "type": "bytes32"
        },
        {
          "internalType": "address",
          "name": "creator",
          "type": "address"
        },
        {
          "internalType": "string",
          "name": "title",
          "type": "string"
        },
        {
          "internalType": "string",
          "name": "description",
          "type": "string"
        },
        {
          "internalType": "bool",
          "name": "isActive",
          "type": "bool"
        },
        {
          "internalType": "uint256",
          "name": "createdAt",
          "type": "uint256"
        },
        {
          "internalType": "uint256",
          "name": "completedAt",
          "type": "uint256"
        },
        {
          "internalType": "uint256",
          "name": "donorCount",
          "type": "uint256"
        }
      ],
      "stateMutability": "view",
      "type": "function"
    },
    {
      "inputs": [
        {
          "internalType": "bytes32",
          "name": "_campaignId",
          "type": "bytes32"
        }
      ],
      "name": "getCampaignDonations",
      "outputs": [
        {
          "components": [
            {
              "internalType": "address",
              "name": "donor",
              "type": "address"
            },
            {
              "internalType": "bytes32",
              "name": "campaignId",
              "type": "bytes32"
            },
            {
              "internalType": "euint32",
              "name": "encryptedAmount",
              "type": "bytes32"
            },
            {
              "internalType": "uint256",
              "name": "timestamp",
              "type": "uint256"
            }
          ],
          "internalType": "struct CipherKindGlow.Donation[]",
          "name": "",
          "type": "tuple[]"
        }
      ],
      "stateMutability": "view",
      "type": "function"
    },
    {
      "inputs": [
        {
          "internalType": "bytes32",
          "name": "_campaignId",
          "type": "bytes32"
        }
      ],
      "name": "getCampaignEncryptedData",
      "outputs": [
        {
          "internalType": "euint32",
          "name": "encryptedTargetAmount",
          "type": "bytes32"
        },
        {
          "internalType": "euint32",
          "name": "encryptedTotalRaised",
          "type": "bytes32"
        }
      ],
      "stateMutability": "view",
      "type": "function"
    },
    {
      "inputs": [
        {
          "internalType": "bytes32",
          "name": "_campaignId",
          "type": "bytes32"
        }
      ],
      "name": "getCampaignStats",
      "outputs": [
        {
          "internalType": "uint256",
          "name": "donorCount",
          "type": "uint256"
        },
        {
          "internalType": "uint256",
          "name": "donationCount",
          "type": "uint256"
        }
      ],
      "stateMutability": "view",
      "type": "function"
    },
    {
      "inputs": [],
      "name": "getPlatformStats",
      "outputs": [
        {
          "internalType": "uint256",
          "name": "",
          "type": "uint256"
        },
        {
          "internalType": "uint256",
          "name": "",
          "type": "uint256"
        }
      ],
      "stateMutability": "view",
      "type": "function"
    },
    {
      "inputs": [
        {
          "internalType": "address",
          "name": "_user",
          "type": "address"
        }
      ],
      "name": "getUserDonations",
      "outputs": [
        {
          "components": [
            {
              "internalType": "address",
              "name": "donor",
              "type": "address"
            },
            {
              "internalType": "bytes32",
              "name": "campaignId",
              "type": "bytes32"
            },
            {
              "internalType": "euint32",
              "name": "encryptedAmount",
              "type": "bytes32"
            },
            {
              "internalType": "uint256",
              "name": "timestamp",
              "type": "uint256"
            }
          ],
          "internalType": "struct CipherKindGlow.Donation[]",
          "name": "",
          "type": "tuple[]"
        }
      ],
      "stateMutability": "view",
      "type": "function"
    },
    {
      "inputs": [
        {
          "internalType": "bytes32",
          "name": "_campaignId",
          "type": "bytes32"
        },
        {
          "internalType": "address",
          "name": "_user",
          "type": "address"
        }
      ],
      "name": "hasUserDonated",
      "outputs": [
        {
          "internalType": "bool",
          "name": "",
          "type": "bool"
        }
      ],
      "stateMutability": "view",
      "type": "function"
    },
    {
      "inputs": [
        {
          "internalType": "bytes32",
          "name": "_campaignId",
          "type": "bytes32"
        },
        {
          "internalType": "externalEuint32",
          "name": "_encryptedAmount",
          "type": "bytes32"
        },
        {
          "internalType": "bytes",
          "name": "_inputProof",
          "type": "bytes"
        }
      ],
      "name": "makeDonation",
      "outputs": [],
      "stateMutability": "nonpayable",
      "type": "function"
    },
    {
      "inputs": [],
      "name": "protocolId",
      "outputs": [
        {
          "internalType": "uint256",
          "name": "",
          "type": "uint256"
        }
      ],
      "stateMutability": "pure",
      "type": "function"
    },
    {
      "inputs": [],
      "name": "totalCampaigns",
      "outputs": [
        {
          "internalType": "uint256",
          "name": "",
          "type": "uint256"
        }
      ],
      "stateMutability": "view",
      "type": "function"
    },
    {
      "inputs": [],
      "name": "totalDonations",
      "outputs": [
        {
          "internalType": "uint256",
          "name": "",
          "type": "uint256"
        }
      ],
      "stateMutability": "view",
      "type": "function"
    },
    {
      "inputs": [
        {
          "internalType": "address",
          "name": "",
          "type": "address"
        },
        {
          "internalType": "uint256",
          "name": "",
          "type": "uint256"
        }
      ],
      "name": "userDonations",
      "outputs": [
        {
          "internalType": "address",
          "name": "donor",
          "type": "address"
        },
        {
          "internalType": "bytes32",
          "name": "campaignId",
          "type": "bytes32"
        },
        {
          "internalType": "euint32",
          "name": "encryptedAmount",
          "type": "bytes32"
        },
        {
          "internalType": "uint256",
          "name": "timestamp",
          "type": "uint256"
        }
      ],
      "stateMutability": "view",
      "type": "function"
    }
  ],
  "bytecode": "0x608060405234801561001057600080fd5b5061018c6100b060408051608081018252600080825260208201819052918101829052606081019190915250604080516080810182527350157cffd6bbfa2dece204a89ec419c23ef5755d815273cd3ab3bd6bcc0c0bf3e27912a92043e817b1cf69602082015273a02cda4ca3a71d7c46997716f4283aa851c2881291810191909152731364cbbf2cdf5032c47d8226a6f6fbd2afcdacac606082015290565b80517f9e7b61f58c47dc699ac88507c4f5bb9f121c03808c5676a8078fe583e464970080546001600160a01b03199081166001600160a01b039384161790915560208301517f9e7b61f58c47dc699ac88507c4f5bb9f121c03808c5676a8078fe583e46497018054831691841691909117905560408301517f9e7b61f58c47dc699ac88507c4f5bb9f121c03808c5676a8078fe583e46497028054831691841691909117905560608301517f9e7b61f58c47dc699ac88507c4f5bb9f121c03808c5676a8078fe583e46497038054909216921691909117905550565b6118198061019b6000396000f3fe608060405234801561001057600080fd5b50600436106101165760003560e01c806386cdf604116100a2578063b369359d11610071578063b369359d146102de578063cabe0452146102f1578063d56598bc14610318578063da1f12ab1461032b578063de2ed8931461033357600080fd5b806386cdf604146102795780639eca2f1e1461028e578063a6567712146102b8578063b0a6e3e6146102cb57600080fd5b80634a7326fa116100e95780634a7326fa146101db5780634c8cd61914610206578063732435b21461022657806375a65f1a146102395780637d49442e1461026457600080fd5b806302932f561461011b578063136d8883146101375780634664223c146101535780634933e6311461019e575b600080fd5b61012460045481565b6040519081526020015b60405180910390f35b6004546005545b6040805192835260208301919091520161012e565b61018e6101613660046110f5565b6000828152602081815260408083206001600160a01b038516845260090190915290205460ff1692915050565b604051901515815260200161012e565b6101b16101ac366004611121565b61033c565b604080516001600160a01b039095168552602085019390935291830152606082015260800161012e565b61013e6101e936600461114b565b600090815260208190526040902060048101546005909101549091565b61021961021436600461114b565b61038c565b60405161012e9190611164565b6102196102343660046111d1565b610429565b61013e61024736600461114b565b6000908152602081905260409020600a810154600b909101549091565b610277610272366004611235565b6104bb565b005b610281610794565b60405161012e9190611288565b6102a161029c36600461114b565b6107ec565b60405161012e9b9a9998979695949392919061131c565b6101b16102c6366004611398565b61095f565b6102776102d936600461114b565b61097b565b6101246102ec36600461114b565b610ab5565b6103046102ff36600461114b565b610ad6565b60405161012e9897969594939291906113ba565b6101246103263660046114c4565b610c62565b612711610124565b61012460055481565b6001602052816000526040600020818154811061035857600080fd5b600091825260209091206004909102018054600182015460028301546003909301546001600160a01b039092169450925084565b606060026000838152602001908152602001600020805480602002602001604051908101604052809291908181526020016000905b8282101561041e576000848152602090819020604080516080810182526004860290920180546001600160a01b031683526001808201548486015260028201549284019290925260030154606083015290835290920191016103c1565b505050509050919050565b6001600160a01b038116600090815260016020908152604080832080548251818502810185019093528083526060949293919290918401821561041e576000848152602090819020604080516080810182526004860290920180546001600160a01b031683526001808201548486015260028201549284019290925260030154606083015290835290920191016103c1565b600084815260208190526040902060060154849060ff1661051c5760405162461bcd60e51b815260206004820152601660248201527543616d706169676e206973206e6f742061637469766560501b60448201526064015b60405180910390fd5b600061055e8585858080601f016020809104026020016040519081016040528093929190818152602001838380828437600092019190915250610e0f92505050565b905060006040518060800160405280336001600160a01b0316815260200188815260200183815260200142815250905060016000336001600160a01b03166001600160a01b0316815260200190815260200160002081908060018154018082558091505060019003906000526020600020906004020160009091909190915060008201518160000160006101000a8154816001600160a01b0302191690836001600160a01b0316021790555060208201518160010155604082015181600201556060820151816003015550506002600088815260200190815260200160002081908060018154018082558091505060019003906000526020600020906004020160009091909190915060008201518160000160006101000a8154816001600160a01b0302191690836001600160a01b0316021790555060208201518160010155604082015181600201556060820151816003015550506106c18160400151610e24565b506106d0816040015133610e34565b50600087815260208181526040808320338452600981019092529091205460ff16610727573360009081526009820160205260408120805460ff19166001179055600a82018054916107218361155d565b91905055505b600b810180549060006107398361155d565b90915550506005805490600061074e8361155d565b9091555050604051428152889033907f61bdd7a8d18433c2145fcdf52a4a259100e2ea6b9e431213583b876c14f615d89060200160405180910390a35050505050505050565b606060038054806020026020016040519081016040528092919081815260200182805480156107e257602002820191906000526020600020905b8154815260200190600101908083116107ce575b5050505050905090565b60006020819052908152604090208054600182015460028301805492936001600160a01b039092169261081e90611584565b80601f016020809104026020016040519081016040528092919081815260200182805461084a90611584565b80156108975780601f1061086c57610100808354040283529160200191610897565b820191906000526020600020905b81548152906001019060200180831161087a57829003601f168201915b5050505050908060030180546108ac90611584565b80601f01602080910402602001604051908101604052809291908181526020018280546108d890611584565b80156109255780601f106108fa57610100808354040283529160200191610925565b820191906000526020600020905b81548152906001019060200180831161090857829003601f168201915b5050505060048301546005840154600685015460078601546008870154600a880154600b909801549697949693955060ff9092169390928b565b6002602052816000526040600020818154811061035857600080fd5b60008181526020819052604090206001015481906001600160a01b031633146109fc5760405162461bcd60e51b815260206004820152602d60248201527f4f6e6c792063616d706169676e2063726561746f722063616e20706572666f7260448201526c36903a3434b99030b1ba34b7b760991b6064820152608401610513565b600082815260208190526040902060060154829060ff16610a585760405162461bcd60e51b815260206004820152601660248201527543616d706169676e206973206e6f742061637469766560501b6044820152606401610513565b6000838152602081815260409182902060068101805460ff19169055426008820181905592519283529185917f39c59e243b727b972e7c4ce6e5d7e6ce2c886e018b0ce40d214e17624d51b082910160405180910390a250505050565b60038181548110610ac557600080fd5b600091825260209091200154905081565b600081815260208190526040812080546001820154600683015460078401546008850154600a860154600287018054899860609889988b98899889988998959794966001600160a01b0390941695600389019460ff909416938690610b3a90611584565b80601f0160208091040260200160405190810160405280929190818152602001828054610b6690611584565b8015610bb35780601f10610b8857610100808354040283529160200191610bb3565b820191906000526020600020905b815481529060010190602001808311610b9657829003601f168201915b50505050509550848054610bc690611584565b80601f0160208091040260200160405190810160405280929190818152602001828054610bf290611584565b8015610c3f5780601f10610c1457610100808354040283529160200191610c3f565b820191906000526020600020905b815481529060010190602001808311610c2257829003601f168201915b505050505094509850985098509850985098509850985050919395975091939597565b60008033878742604051602001610c7c94939291906115be565b6040516020818303038152906040528051906020012090506000610cd68686868080601f016020809104026020016040519081016040528093929190818152602001838380828437600092019190915250610e0f92505050565b60008381526020819052604090208381556001810180546001600160a01b0319163317905590915060028101610d0c8a82611665565b5060038101610d1b8982611665565b5060048101829055610d2d6000610e47565b600582015560068101805460ff19166001179055426007820155600060088201819055600a8201556004810154610d6390610e24565b50610d72816004015433610e34565b506003805460018101825560009182527fc2575a0e9e593c00f959f8c92f12db2869c3395a3b0502d05e2516446f71f85b018490556004805491610db58361155d565b9190505550336001600160a01b0316837f032b938a83a14f3374c7409fa3d56fa6fce178285a08fd36d786cdd915cbf2f18b8b42604051610df893929190611725565b60405180910390a350909150505b95945050505050565b6000610e1d83836004610e60565b9392505050565b6000610e308230610f89565b5090565b6000610e408383610f89565b5090919050565b6000610e5a8263ffffffff166004611018565b92915050565b7f9e7b61f58c47dc699ac88507c4f5bb9f121c03808c5676a8078fe583e46497015460405163196d0b9b60e01b81526000917f9e7b61f58c47dc699ac88507c4f5bb9f121c03808c5676a8078fe583e4649700916001600160a01b039091169063196d0b9b90610eda90889033908990899060040161177d565b6020604051808303816000875af1158015610ef9573d6000803e3d6000fd5b505050506040513d601f19601f82011682018060405250810190610f1d91906117b6565b8154604051630f8e573b60e21b8152600481018390523360248201529193506001600160a01b031690633e395cec90604401600060405180830381600087803b158015610f6957600080fd5b505af1158015610f7d573d6000803e3d6000fd5b50505050509392505050565b60007f9e7b61f58c47dc699ac88507c4f5bb9f121c03808c5676a8078fe583e46497008054604051635ca4b5b160e11b8152600481018690526001600160a01b03858116602483015292935091169063b9496b6290604401600060405180830381600087803b158015610ffb57600080fd5b505af115801561100f573d6000803e3d6000fd5b50505050505050565b7f9e7b61f58c47dc699ac88507c4f5bb9f121c03808c5676a8078fe583e464970154604051639cd07acb60e01b81526000917f9e7b61f58c47dc699ac88507c4f5bb9f121c03808c5676a8078fe583e4649700916001600160a01b0390911690639cd07acb9061108e90879087906004016117cf565b6020604051808303816000875af11580156110ad573d6000803e3d6000fd5b505050506040513d601f19601f820116820180604052508101906110d191906117b6565b949350505050565b80356001600160a01b03811681146110f057600080fd5b919050565b6000806040838503121561110857600080fd5b82359150611118602084016110d9565b90509250929050565b6000806040838503121561113457600080fd5b61113d836110d9565b946020939093013593505050565b60006020828403121561115d57600080fd5b5035919050565b602080825282518282018190526000919060409081850190868401855b828110156111c457815180516001600160a01b03168552868101518786015285810151868601526060908101519085015260809093019290850190600101611181565b5091979650505050505050565b6000602082840312156111e357600080fd5b610e1d826110d9565b60008083601f8401126111fe57600080fd5b50813567ffffffffffffffff81111561121657600080fd5b60208301915083602082850101111561122e57600080fd5b9250929050565b6000806000806060858703121561124b57600080fd5b8435935060208501359250604085013567ffffffffffffffff81111561127057600080fd5b61127c878288016111ec565b95989497509550505050565b6020808252825182820181905260009190848201906040850190845b818110156112c0578351835292840192918401916001016112a4565b50909695505050505050565b60005b838110156112e75781810151838201526020016112cf565b50506000910152565b600081518084526113088160208601602086016112cc565b601f01601f19169290920160200192915050565b8b81526001600160a01b038b166020820152610160604082018190526000906113478382018d6112f0565b9050828103606084015261135b818c6112f0565b608084019a909a52505060a081019690965293151560c086015260e085019290925261010084015261012083015261014090910152949350505050565b600080604083850312156113ab57600080fd5b50508035926020909101359150565b8881526001600160a01b0388166020820152610100604082018190526000906113e58382018a6112f0565b905082810360608401526113f981896112f0565b9615156080840152505060a081019390935260c083019190915260e090910152949350505050565b634e487b7160e01b600052604160045260246000fd5b600082601f83011261144857600080fd5b813567ffffffffffffffff8082111561146357611463611421565b604051601f8301601f19908116603f0116810190828211818310171561148b5761148b611421565b816040528381528660208588010111156114a457600080fd5b836020870160208301376000602085830101528094505050505092915050565b6000806000806000608086880312156114dc57600080fd5b853567ffffffffffffffff808211156114f457600080fd5b61150089838a01611437565b9650602088013591508082111561151657600080fd5b61152289838a01611437565b955060408801359450606088013591508082111561153f57600080fd5b5061154c888289016111ec565b969995985093965092949392505050565b60006001820161157d57634e487b7160e01b600052601160045260246000fd5b5060010190565b600181811c9082168061159857607f821691505b6020821081036115b857634e487b7160e01b600052602260045260246000fd5b50919050565b6bffffffffffffffffffffffff198560601b168152600084516115e88160148501602089016112cc565b8451908301906115ff8160148401602089016112cc565b01601481019390935250506034019392505050565b601f821115611660576000816000526020600020601f850160051c8101602086101561163d5750805b601f850160051c820191505b8181101561165c57828155600101611649565b5050505b505050565b815167ffffffffffffffff81111561167f5761167f611421565b6116938161168d8454611584565b84611614565b602080601f8311600181146116c857600084156116b05750858301515b600019600386901b1c1916600185901b17855561165c565b600085815260208120601f198616915b828110156116f7578886015182559484019460019091019084016116d8565b50858210156117155787850151600019600388901b60f8161c191681555b5050505050600190811b01905550565b60608152600061173860608301866112f0565b828103602084015261174a81866112f0565b915050826040830152949350505050565b6054811061177957634e487b7160e01b600052602160045260246000fd5b9052565b8481526001600160a01b03841660208201526080604082018190526000906117a7908301856112f0565b9050610e06606083018461175b565b6000602082840312156117c857600080fd5b5051919050565b82815260408101610e1d602083018461175b56fea2646970667358221220043a73e10e8e8c77d3b69016d166544bd63440557fb1d975e18d2d53516621c864736f6c63430008180033",
  "linkReferences": {},
  "deployedLinkReferences": {}
}