{
  "_format": "hh-sol-artifact-1",
  "contractName": "CipherKindGlow",
  "sourceName": "contracts/CipherKindGlow.sol",
  "abi": [
    {
      "anonymous": false,
      "inputs": [
        {
          "indexed": true,
          "internalType": "bytes32",
          "name": "campaignId",
          "type": "bytes32"
        },
        {
          "indexed": false,
          "internalType": "uint256",
          "name": "timestamp",
          "type": "uint256"
        }
      ],
      "name": "CampaignCompleted",
      "type": "event"
    },
    {
      "anonymous": false,
      "inputs": [
        {
          "indexed": true,
          "internalType": "bytes32",
          "name": "campaignId",
          "type": "bytes32"
        },
        {
          "indexed": true,
          "internalType": "address",
          "name": "creator",
          "type": "address"
        },
        {
          "indexed": false,
          "internalType": "string",
          "name": "title",
          "type": "string"
        },
        {
          "indexed": false,
          "internalType": "string",
          "name": "description",
          "type": "string"
        },
        {
          "indexed": false,
          "internalType": "uint256",
          "name": "timestamp",
          "type": "uint256"
        }
      ],
      "name": "CampaignCreated",
      "type": "event"
    },
    {
      "anonymous": false,
      "inputs": [
        {
          "indexed": true,
          "internalType": "address",
          "name": "donor",
          "type": "address"
        },
        {
          "indexed": true,
          "internalType": "bytes32",
          "name": "campaignId",
          "type": "bytes32"
        },
        {
          "indexed": false,
          "internalType": "uint256",
          "name": "timestamp",
          "type": "uint256"
        }
      ],
      "name": "DonationMade",
      "type": "event"
    },
    {
      "inputs": [
        {
          "internalType": "bytes32",
          "name": "",
          "type": "bytes32"
        },
        {
          "internalType": "uint256",
          "name": "",
          "type": "uint256"
        }
      ],
      "name": "campaignDonations",
      "outputs": [
        {
          "internalType": "address",
          "name": "donor",
          "type": "address"
        },
        {
          "internalType": "bytes32",
          "name": "campaignId",
          "type": "bytes32"
        },
        {
          "internalType": "euint32",
          "name": "encryptedAmount",
          "type": "bytes32"
        },
        {
          "internalType": "uint256",
          "name": "timestamp",
          "type": "uint256"
        }
      ],
      "stateMutability": "view",
      "type": "function"
    },
    {
      "inputs": [
        {
          "internalType": "uint256",
          "name": "",
          "type": "uint256"
        }
      ],
      "name": "campaignIds",
      "outputs": [
        {
          "internalType": "bytes32",
          "name": "",
          "type": "bytes32"
        }
      ],
      "stateMutability": "view",
      "type": "function"
    },
    {
      "inputs": [
        {
          "internalType": "bytes32",
          "name": "",
          "type": "bytes32"
        }
      ],
      "name": "campaigns",
      "outputs": [
        {
          "internalType": "bytes32",
          "name": "id",
          "type": "bytes32"
        },
        {
          "internalType": "address",
          "name": "creator",
          "type": "address"
        },
        {
          "internalType": "string",
          "name": "title",
          "type": "string"
        },
        {
          "internalType": "string",
          "name": "description",
          "type": "string"
        },
        {
          "internalType": "euint32",
          "name": "encryptedTargetAmount",
          "type": "bytes32"
        },
        {
          "internalType": "euint32",
          "name": "encryptedTotalRaised",
          "type": "bytes32"
        },
        {
          "internalType": "bool",
          "name": "isActive",
          "type": "bool"
        },
        {
          "internalType": "uint256",
          "name": "createdAt",
          "type": "uint256"
        },
        {
          "internalType": "uint256",
          "name": "completedAt",
          "type": "uint256"
        },
        {
          "internalType": "uint256",
          "name": "donorCount",
          "type": "uint256"
        }
      ],
      "stateMutability": "view",
      "type": "function"
    },
    {
      "inputs": [
        {
          "internalType": "bytes32",
          "name": "_campaignId",
          "type": "bytes32"
        }
      ],
      "name": "completeCampaign",
      "outputs": [],
      "stateMutability": "nonpayable",
      "type": "function"
    },
    {
      "inputs": [
        {
          "internalType": "string",
          "name": "_title",
          "type": "string"
        },
        {
          "internalType": "string",
          "name": "_description",
          "type": "string"
        },
        {
          "internalType": "externalEuint32",
          "name": "_encryptedTargetAmount",
          "type": "bytes32"
        },
        {
          "internalType": "bytes",
          "name": "_inputProof",
          "type": "bytes"
        }
      ],
      "name": "createCampaign",
      "outputs": [
        {
          "internalType": "bytes32",
          "name": "",
          "type": "bytes32"
        }
      ],
      "stateMutability": "nonpayable",
      "type": "function"
    },
    {
      "inputs": [],
      "name": "getAllCampaigns",
      "outputs": [
        {
          "internalType": "bytes32[]",
          "name": "",
          "type": "bytes32[]"
        }
      ],
      "stateMutability": "view",
      "type": "function"
    },
    {
      "inputs": [
        {
          "internalType": "bytes32",
          "name": "_campaignId",
          "type": "bytes32"
        }
      ],
      "name": "getCampaign",
      "outputs": [
        {
          "internalType": "bytes32",
          "name": "id",
          "type": "bytes32"
        },
        {
          "internalType": "address",
          "name": "creator",
          "type": "address"
        },
        {
          "internalType": "string",
          "name": "title",
          "type": "string"
        },
        {
          "internalType": "string",
          "name": "description",
          "type": "string"
        },
        {
          "internalType": "bool",
          "name": "isActive",
          "type": "bool"
        },
        {
          "internalType": "uint256",
          "name": "createdAt",
          "type": "uint256"
        },
        {
          "internalType": "uint256",
          "name": "completedAt",
          "type": "uint256"
        },
        {
          "internalType": "uint256",
          "name": "donorCount",
          "type": "uint256"
        }
      ],
      "stateMutability": "view",
      "type": "function"
    },
    {
      "inputs": [
        {
          "internalType": "bytes32",
          "name": "_campaignId",
          "type": "bytes32"
        }
      ],
      "name": "getCampaignDonations",
      "outputs": [
        {
          "components": [
            {
              "internalType": "address",
              "name": "donor",
              "type": "address"
            },
            {
              "internalType": "bytes32",
              "name": "campaignId",
              "type": "bytes32"
            },
            {
              "internalType": "euint32",
              "name": "encryptedAmount",
              "type": "bytes32"
            },
            {
              "internalType": "uint256",
              "name": "timestamp",
              "type": "uint256"
            }
          ],
          "internalType": "struct CipherKindGlow.Donation[]",
          "name": "",
          "type": "tuple[]"
        }
      ],
      "stateMutability": "view",
      "type": "function"
    },
    {
      "inputs": [
        {
          "internalType": "bytes32",
          "name": "_campaignId",
          "type": "bytes32"
        }
      ],
      "name": "getCampaignEncryptedData",
      "outputs": [
        {
          "internalType": "euint32",
          "name": "encryptedTargetAmount",
          "type": "bytes32"
        },
        {
          "internalType": "euint32",
          "name": "encryptedTotalRaised",
          "type": "bytes32"
        }
      ],
      "stateMutability": "view",
      "type": "function"
    },
    {
      "inputs": [],
      "name": "getPlatformStats",
      "outputs": [
        {
          "internalType": "uint256",
          "name": "",
          "type": "uint256"
        },
        {
          "internalType": "uint256",
          "name": "",
          "type": "uint256"
        }
      ],
      "stateMutability": "view",
      "type": "function"
    },
    {
      "inputs": [
        {
          "internalType": "address",
          "name": "_user",
          "type": "address"
        }
      ],
      "name": "getUserDonations",
      "outputs": [
        {
          "components": [
            {
              "internalType": "address",
              "name": "donor",
              "type": "address"
            },
            {
              "internalType": "bytes32",
              "name": "campaignId",
              "type": "bytes32"
            },
            {
              "internalType": "euint32",
              "name": "encryptedAmount",
              "type": "bytes32"
            },
            {
              "internalType": "uint256",
              "name": "timestamp",
              "type": "uint256"
            }
          ],
          "internalType": "struct CipherKindGlow.Donation[]",
          "name": "",
          "type": "tuple[]"
        }
      ],
      "stateMutability": "view",
      "type": "function"
    },
    {
      "inputs": [
        {
          "internalType": "bytes32",
          "name": "_campaignId",
          "type": "bytes32"
        },
        {
          "internalType": "address",
          "name": "_user",
          "type": "address"
        }
      ],
      "name": "hasUserDonated",
      "outputs": [
        {
          "internalType": "bool",
          "name": "",
          "type": "bool"
        }
      ],
      "stateMutability": "view",
      "type": "function"
    },
    {
      "inputs": [
        {
          "internalType": "bytes32",
          "name": "_campaignId",
          "type": "bytes32"
        },
        {
          "internalType": "externalEuint32",
          "name": "_encryptedAmount",
          "type": "bytes32"
        },
        {
          "internalType": "bytes",
          "name": "_inputProof",
          "type": "bytes"
        }
      ],
      "name": "makeDonation",
      "outputs": [],
      "stateMutability": "nonpayable",
      "type": "function"
    },
    {
      "inputs": [],
      "name": "protocolId",
      "outputs": [
        {
          "internalType": "uint256",
          "name": "",
          "type": "uint256"
        }
      ],
      "stateMutability": "pure",
      "type": "function"
    },
    {
      "inputs": [],
      "name": "totalCampaigns",
      "outputs": [
        {
          "internalType": "uint256",
          "name": "",
          "type": "uint256"
        }
      ],
      "stateMutability": "view",
      "type": "function"
    },
    {
      "inputs": [],
      "name": "totalDonations",
      "outputs": [
        {
          "internalType": "uint256",
          "name": "",
          "type": "uint256"
        }
      ],
      "stateMutability": "view",
      "type": "function"
    },
    {
      "inputs": [
        {
          "internalType": "address",
          "name": "",
          "type": "address"
        },
        {
          "internalType": "uint256",
          "name": "",
          "type": "uint256"
        }
      ],
      "name": "userDonations",
      "outputs": [
        {
          "internalType": "address",
          "name": "donor",
          "type": "address"
        },
        {
          "internalType": "bytes32",
          "name": "campaignId",
          "type": "bytes32"
        },
        {
          "internalType": "euint32",
          "name": "encryptedAmount",
          "type": "bytes32"
        },
        {
          "internalType": "uint256",
          "name": "timestamp",
          "type": "uint256"
        }
      ],
      "stateMutability": "view",
      "type": "function"
    }
  ],
  "bytecode": "0x608060405234801561001057600080fd5b5061018c6100b060408051608081018252600080825260208201819052918101829052606081019190915250604080516080810182527350157cffd6bbfa2dece204a89ec419c23ef5755d815273cd3ab3bd6bcc0c0bf3e27912a92043e817b1cf69602082015273a02cda4ca3a71d7c46997716f4283aa851c2881291810191909152731364cbbf2cdf5032c47d8226a6f6fbd2afcdacac606082015290565b80517f9e7b61f58c47dc699ac88507c4f5bb9f121c03808c5676a8078fe583e464970080546001600160a01b03199081166001600160a01b039384161790915560208301517f9e7b61f58c47dc699ac88507c4f5bb9f121c03808c5676a8078fe583e46497018054831691841691909117905560408301517f9e7b61f58c47dc699ac88507c4f5bb9f121c03808c5676a8078fe583e46497028054831691841691909117905560608301517f9e7b61f58c47dc699ac88507c4f5bb9f121c03808c5676a8078fe583e46497038054909216921691909117905550565b6118df8061019b6000396000f3fe608060405234801561001057600080fd5b506004361061010b5760003560e01c806386cdf604116100a2578063b369359d11610071578063b369359d146102a7578063cabe0452146102ba578063d56598bc146102e1578063da1f12ab146102f4578063de2ed893146102fc57600080fd5b806386cdf604146102435780639eca2f1e14610258578063a656771214610281578063b0a6e3e61461029457600080fd5b80634a7326fa116100de5780634a7326fa146101d05780634c8cd619146101fb578063732435b21461021b5780637d49442e1461022e57600080fd5b806302932f5614610110578063136d88831461012c5780634664223c146101485780634933e63114610193575b600080fd5b61011960045481565b6040519081526020015b60405180910390f35b6004546005545b60408051928352602083019190915201610123565b6101836101563660046111a1565b6000828152602081815260408083206001600160a01b038516845260090190915290205460ff1692915050565b6040519015158152602001610123565b6101a66101a13660046111cd565b610305565b604080516001600160a01b0390951685526020850193909352918301526060820152608001610123565b6101336101de3660046111f7565b600090815260208190526040902060048101546005909101549091565b61020e6102093660046111f7565b610355565b6040516101239190611210565b61020e61022936600461127d565b6103f2565b61024161023c3660046112e1565b610484565b005b61024b61078d565b6040516101239190611334565b61026b6102663660046111f7565b6107e5565b6040516101239a999897969594939291906113c8565b6101a661028f36600461143e565b610953565b6102416102a23660046111f7565b61096f565b6101196102b53660046111f7565b610aa9565b6102cd6102c83660046111f7565b610aca565b604051610123989796959493929190611460565b6101196102ef36600461156a565b610c56565b612711610119565b61011960055481565b6001602052816000526040600020818154811061032157600080fd5b600091825260209091206004909102018054600182015460028301546003909301546001600160a01b039092169450925084565b606060026000838152602001908152602001600020805480602002602001604051908101604052809291908181526020016000905b828210156103e7576000848152602090819020604080516080810182526004860290920180546001600160a01b0316835260018082015484860152600282015492840192909252600301546060830152908352909201910161038a565b505050509050919050565b6001600160a01b03811660009081526001602090815260408083208054825181850281018501909352808352606094929391929091840182156103e7576000848152602090819020604080516080810182526004860290920180546001600160a01b0316835260018082015484860152600282015492840192909252600301546060830152908352909201910161038a565b600084815260208190526040902060060154849060ff166104e55760405162461bcd60e51b815260206004820152601660248201527543616d706169676e206973206e6f742061637469766560501b60448201526064015b60405180910390fd5b6000858152602081815260408083208151601f870184900484028101840190925285825292916105319188918890889081908401838280828437600092019190915250610e0392505050565b905060006040518060800160405280336001600160a01b0316815260200189815260200183815260200142815250905060016000336001600160a01b03166001600160a01b0316815260200190815260200160002081908060018154018082558091505060019003906000526020600020906004020160009091909190915060008201518160000160006101000a8154816001600160a01b0302191690836001600160a01b0316021790555060208201518160010155604082015181600201556060820151816003015550506002600089815260200190815260200160002081908060018154018082558091505060019003906000526020600020906004020160009091909190915060008201518160000160006101000a8154816001600160a01b0302191690836001600160a01b031602179055506020820151816001015560408201518160020155606082015181600301555050826009016000336001600160a01b03166001600160a01b0316815260200190815260200160002060009054906101000a900460ff166106f2573360009081526009840160205260408120805460ff19166001179055600a84018054916106ec83611603565b91905055505b610700836005015483610e18565b600584015561070e82610e4a565b506107198233610e5a565b506107278360050154610e4a565b50610736836005015433610e5a565b506005805490600061074783611603565b9091555050604051428152889033907f61bdd7a8d18433c2145fcdf52a4a259100e2ea6b9e431213583b876c14f615d89060200160405180910390a35050505050505050565b606060038054806020026020016040519081016040528092919081815260200182805480156107db57602002820191906000526020600020905b8154815260200190600101908083116107c7575b5050505050905090565b60006020819052908152604090208054600182015460028301805492936001600160a01b03909216926108179061162a565b80601f01602080910402602001604051908101604052809291908181526020018280546108439061162a565b80156108905780601f1061086557610100808354040283529160200191610890565b820191906000526020600020905b81548152906001019060200180831161087357829003601f168201915b5050505050908060030180546108a59061162a565b80601f01602080910402602001604051908101604052809291908181526020018280546108d19061162a565b801561091e5780601f106108f35761010080835404028352916020019161091e565b820191906000526020600020905b81548152906001019060200180831161090157829003601f168201915b50505060048401546005850154600686015460078701546008880154600a909801549697939692955060ff909116935091908a565b6002602052816000526040600020818154811061032157600080fd5b60008181526020819052604090206001015481906001600160a01b031633146109f05760405162461bcd60e51b815260206004820152602d60248201527f4f6e6c792063616d706169676e2063726561746f722063616e20706572666f7260448201526c36903a3434b99030b1ba34b7b760991b60648201526084016104dc565b600082815260208190526040902060060154829060ff16610a4c5760405162461bcd60e51b815260206004820152601660248201527543616d706169676e206973206e6f742061637469766560501b60448201526064016104dc565b6000838152602081815260409182902060068101805460ff19169055426008820181905592519283529185917f39c59e243b727b972e7c4ce6e5d7e6ce2c886e018b0ce40d214e17624d51b082910160405180910390a250505050565b60038181548110610ab957600080fd5b600091825260209091200154905081565b600081815260208190526040812080546001820154600683015460078401546008850154600a860154600287018054899860609889988b98899889988998959794966001600160a01b0390941695600389019460ff909416938690610b2e9061162a565b80601f0160208091040260200160405190810160405280929190818152602001828054610b5a9061162a565b8015610ba75780601f10610b7c57610100808354040283529160200191610ba7565b820191906000526020600020905b815481529060010190602001808311610b8a57829003601f168201915b50505050509550848054610bba9061162a565b80601f0160208091040260200160405190810160405280929190818152602001828054610be69061162a565b8015610c335780601f10610c0857610100808354040283529160200191610c33565b820191906000526020600020905b815481529060010190602001808311610c1657829003601f168201915b505050505094509850985098509850985098509850985050919395975091939597565b60008033878742604051602001610c709493929190611664565b6040516020818303038152906040528051906020012090506000610cca8686868080601f016020809104026020016040519081016040528093929190818152602001838380828437600092019190915250610e0392505050565b60008381526020819052604090208381556001810180546001600160a01b0319163317905590915060028101610d008a8261170b565b5060038101610d0f898261170b565b5060048101829055610d216000610e6d565b600582015560068101805460ff19166001179055426007820155600060088201819055600a8201556004810154610d5790610e4a565b50610d66816004015433610e5a565b506003805460018101825560009182527fc2575a0e9e593c00f959f8c92f12db2869c3395a3b0502d05e2516446f71f85b018490556004805491610da983611603565b9190505550336001600160a01b0316837f032b938a83a14f3374c7409fa3d56fa6fce178285a08fd36d786cdd915cbf2f18b8b42604051610dec939291906117cb565b60405180910390a350909150505b95945050505050565b6000610e1183836004610e86565b9392505050565b600082610e2c57610e296000610e6d565b92505b81610e3e57610e3b6000610e6d565b91505b610e1183836000610f9d565b6000610e568230611059565b5090565b6000610e668383611059565b5090919050565b6000610e808263ffffffff1660046110d6565b92915050565b7f9e7b61f58c47dc699ac88507c4f5bb9f121c03808c5676a8078fe583e46497015460405163196d0b9b60e01b815260009160008051602061188a833981519152916001600160a01b039091169063196d0b9b90610eee908890339089908990600401611823565b6020604051808303816000875af1158015610f0d573d6000803e3d6000fd5b505050506040513d601f19601f82011682018060405250810190610f31919061185c565b8154604051630f8e573b60e21b8152600481018390523360248201529193506001600160a01b031690633e395cec90604401600060405180830381600087803b158015610f7d57600080fd5b505af1158015610f91573d6000803e3d6000fd5b50505050509392505050565b6000808215610fb15750600160f81b610fb5565b5060005b600060008051602061188a833981519152600181015460405163022f65e760e31b815260048101899052602481018890526001600160f81b0319851660448201529192506001600160a01b03169063117b2f38906064016020604051808303816000875af115801561102b573d6000803e3d6000fd5b505050506040513d601f19601f8201168201806040525081019061104f919061185c565b9695505050505050565b600060008051602061188a8339815191528054604051635ca4b5b160e11b8152600481018690526001600160a01b03858116602483015292935091169063b9496b6290604401600060405180830381600087803b1580156110b957600080fd5b505af11580156110cd573d6000803e3d6000fd5b50505050505050565b7f9e7b61f58c47dc699ac88507c4f5bb9f121c03808c5676a8078fe583e464970154604051639cd07acb60e01b815260009160008051602061188a833981519152916001600160a01b0390911690639cd07acb9061113a9087908790600401611875565b6020604051808303816000875af1158015611159573d6000803e3d6000fd5b505050506040513d601f19601f8201168201806040525081019061117d919061185c565b949350505050565b80356001600160a01b038116811461119c57600080fd5b919050565b600080604083850312156111b457600080fd5b823591506111c460208401611185565b90509250929050565b600080604083850312156111e057600080fd5b6111e983611185565b946020939093013593505050565b60006020828403121561120957600080fd5b5035919050565b602080825282518282018190526000919060409081850190868401855b8281101561127057815180516001600160a01b0316855286810151878601528581015186860152606090810151908501526080909301929085019060010161122d565b5091979650505050505050565b60006020828403121561128f57600080fd5b610e1182611185565b60008083601f8401126112aa57600080fd5b50813567ffffffffffffffff8111156112c257600080fd5b6020830191508360208285010111156112da57600080fd5b9250929050565b600080600080606085870312156112f757600080fd5b8435935060208501359250604085013567ffffffffffffffff81111561131c57600080fd5b61132887828801611298565b95989497509550505050565b6020808252825182820181905260009190848201906040850190845b8181101561136c57835183529284019291840191600101611350565b50909695505050505050565b60005b8381101561139357818101518382015260200161137b565b50506000910152565b600081518084526113b4816020860160208601611378565b601f01601f19169290920160200192915050565b8a81526001600160a01b038a166020820152610140604082018190526000906113f38382018c61139c565b90508281036060840152611407818b61139c565b6080840199909952505060a081019590955292151560c085015260e084019190915261010083015261012090910152949350505050565b6000806040838503121561145157600080fd5b50508035926020909101359150565b8881526001600160a01b03881660208201526101006040820181905260009061148b8382018a61139c565b9050828103606084015261149f818961139c565b9615156080840152505060a081019390935260c083019190915260e090910152949350505050565b634e487b7160e01b600052604160045260246000fd5b600082601f8301126114ee57600080fd5b813567ffffffffffffffff80821115611509576115096114c7565b604051601f8301601f19908116603f01168101908282118183101715611531576115316114c7565b8160405283815286602085880101111561154a57600080fd5b836020870160208301376000602085830101528094505050505092915050565b60008060008060006080868803121561158257600080fd5b853567ffffffffffffffff8082111561159a57600080fd5b6115a689838a016114dd565b965060208801359150808211156115bc57600080fd5b6115c889838a016114dd565b95506040880135945060608801359150808211156115e557600080fd5b506115f288828901611298565b969995985093965092949392505050565b60006001820161162357634e487b7160e01b600052601160045260246000fd5b5060010190565b600181811c9082168061163e57607f821691505b60208210810361165e57634e487b7160e01b600052602260045260246000fd5b50919050565b6bffffffffffffffffffffffff198560601b1681526000845161168e816014850160208901611378565b8451908301906116a5816014840160208901611378565b01601481019390935250506034019392505050565b601f821115611706576000816000526020600020601f850160051c810160208610156116e35750805b601f850160051c820191505b81811015611702578281556001016116ef565b5050505b505050565b815167ffffffffffffffff811115611725576117256114c7565b61173981611733845461162a565b846116ba565b602080601f83116001811461176e57600084156117565750858301515b600019600386901b1c1916600185901b178555611702565b600085815260208120601f198616915b8281101561179d5788860151825594840194600190910190840161177e565b50858210156117bb5787850151600019600388901b60f8161c191681555b5050505050600190811b01905550565b6060815260006117de606083018661139c565b82810360208401526117f0818661139c565b915050826040830152949350505050565b6054811061181f57634e487b7160e01b600052602160045260246000fd5b9052565b8481526001600160a01b038416602082015260806040820181905260009061184d9083018561139c565b9050610dfa6060830184611801565b60006020828403121561186e57600080fd5b5051919050565b82815260408101610e11602083018461180156fe9e7b61f58c47dc699ac88507c4f5bb9f121c03808c5676a8078fe583e4649700a26469706673582212202d7e2fd8355b57c7eeefe04c3b9e2318751a8a00ec92966f307e44487c79a8ad64736f6c63430008180033",
  "linkReferences": {},
  "deployedLinkReferences": {}
}